:020000040800F2
:10000000680B0020751800086F05000871050008CE
:1000100075050008790500087D050008000000004E
:100020000000000000000000000000008105000842
:10003000830500080000000085050008870500080A
:100040008F1800088F1800088F1800088F180008F4
:100050008F1800088F1800088F1800088F180008E4
:100060008F1800088F1800088F1800088F180008D4
:100070008F1800088F1800088F1800088F180008C4
:100080008F1800088F1800088F1800088F180008B4
:100090008F1800088F1800088F1800088F180008A4
:1000A0008F1800088F1800088F1800088F18000894
:1000B000290500088F1800088F1800088F180008FD
:1000C0008F1800088F1800088F1800088F18000874
:1000D0008F1800084F1600088F18000857170008DF
:1000E0008F1800088F1800088F1800088F18000854
:1000F0008F1800088F1800088F1800088F18000844
:100100008F1800088F1800088F1800088F18000833
:100110008F1800088F1800088F1800088F18000823
:100120008F1800088F1800088F1800088F18000813
:1001300000F002F800F042F80AA090E8000C8244B7
:100140008344AAF10107DA4501D100F037F8AFF294
:10015000090EBAE80F0013F0010F18BFFB1A43F0A5
:10016000010318476036000080360000103A24BFB3
:1001700078C878C1FAD8520724BF30C830C144BF0C
:1001800004680C607047000000230024002500264E
:10019000103A28BF78C1FBD8520728BF30C148BFEA
:1001A0000B607047642903F00381732903F0878291
:1001B000002070471FB51FBD10B510BD03F0CCFA6D
:1001C0001146FFF7F7FF00F08BF803F0EAFA03B4EB
:1001D000FFF7F2FF03BC01F0EDF9000010B56A482B
:1001E0004FF48073694A194644696948A04740B191
:1001F00068A003F05FF86B480078401C69490870FC
:1002000005E069A003F056F80020664908706548CB
:100210000078012814D15C4868A1C2696AA090479F
:1002200040B16BA003F046F85E480078401C5D4981
:10023000087005E06BA003F03DF8002059490870F4
:1002400058480078022816D14F4840F25B726AA1E4
:10025000036A72A0984740B171A003F02BF851488F
:100260000078401C4F49087005E073A003F022F8A5
:1002700000204C4908704B48007803281DD1744871
:100280004FF48073414A194604694148A0477048B9
:1002900070A275A1436978A0984740B179A003F096
:1002A00009F840480078401C3E49087005E07AA0F3
:1002B00003F000F800203B4908703A480078042811
:1002C0000DD1634801220021836978A0984718B1B5
:1002D0007AA002F0EFFF02E07EA002F0EBFF10BD7B
:1002E00001F0FEF84FF4A06001F0E4FA4FF4E130C1
:1002F00001F06FF94FF4E13001F0E6F900F03AFA5D
:1003000048214FF47A7000F01BFB00F0FAFA00F07D
:100310003AFBFFF763FF75A002F0CCFF32E07748AD
:10032000007801281ED1002074490870744975486E
:1003300000F0BBFA7348027873A1744802F0C6FF5C
:10034000434800227149C36971A098476C480278FC
:100350006DA16E4802F0BAFF3D4800226B49C369A7
:100360006EA098473A48808860B1394A91881068F1
:1003700001F06DF8364A9188106803F0CBF8002040
:1003800033498880CBE7000020000020AC0000202B
:10039000AC0100204E657420496E6974204F4B21DA
:1003A0000D0A0000030000204E657420496E697438
:1003B000204572726F72210D0A0000003132333411
:1003C000353633323100000069706F6E6500000011
:1003D000436F6E6E636574204150204F4B210D0AB0
:1003E00000000000436F6E6E63657420415020452D
:1003F00072726F72210D0A0069697A797177662EBF
:100400006D7174742E696F742E677A2E62616964DF
:10041000756263652E636F6D0000000054435000E9
:10042000436F6E6E63657420536572766572204FFC
:100430004B210D0A00000000436F6E6E636574204F
:10044000536572766572204572726F72210D0A00D3
:100450005800002070414F4D636647787365394FEF
:1004600039765A430000000069697A797177662FFE
:10047000636169736979750064616E7069616E6A40
:1004800069000000456E746572204D515454204F30
:100490004B210D0A00000000456E746572204D511D
:1004A0005454204572726F72210D0A002F636169E6
:1004B0002F636F6E74726F6C4C454400537562739A
:1004C0006372696265546F706963204F4B210D0A36
:1004D00000000000537562736372696265546F7047
:1004E0006963204572726F72210D0A0043505520D6
:1004F00053746172742121210D0A00000200002052
:10050000010000200000002025640000AC02002053
:100510002F6361692F77656E647500002F636169D1
:100520002F7368696475000010B50121880702F017
:10053000ACFED8B10121880702F0B8FE124800686D
:10054000401C11490860642801D1002008600F4850
:100550000068401C0D49086040F2DC51884205D11A
:1005600000200A49086001200949087010BD704741
:1005700000BFFEE700BFFEE700BFFEE700BFFEE7EB
:100580007047704770477047040000200800002043
:10059000020000200CB50020019000906C4800681B
:1005A00040F480306A49086000BF6948006800F480
:1005B000003000900198401C0190009818B90198F3
:1005C000B0F5A06FF1D16248006800F4003010B1BE
:1005D0000120009001E0002000900098012843D104
:1005E0005C48006840F010005A49086008460068FE
:1005F00020F0030008600846006840F00200086030
:100600005348406852494860084640684860084678
:10061000406840F4806048600846406820F47C10E0
:1006200048600846406840F4E810486008460068A2
:1006300040F08070086000BF4548006800F000701E
:100640000028F9D04248406820F003004049486043
:100650000846406840F00200486000BF3C484068DF
:1006600000F00C000828F9D10CBD10B5FFF792FF7F
:1006700010BD10B53648006840F0010034490860EC
:1006800008464068344908403149486008460068D7
:10069000324908402E4908600846006820F480204E
:1006A00008600846406820F4FE0048604FF41F00D0
:1006B0008860FFF7DAFF4FF000602949086010BD3D
:1006C00010B5002100200022214B5B6803F00C01D3
:1006D00021B1042906D0082928D107E0214B224C5A
:1006E000236027E01F4B204C236023E0184B5B68FE
:1006F00003F47010164B5B6803F48032022303EBA3
:10070000904022B9194B4343174C23600DE0104B26
:100710005B6803F4003323B1144B4343124C236052
:1007200003E0104B4343104C236003E00D4B0E4C91
:10073000236000BF00BF064B5B68C3F303130C4C80
:10074000E15C094B1B68CB40074C236010BD0000E7
:1007500000100240002002400000FFF8FFFFF6FEFC
:1007600008ED00E000127A000C00002000093D00B6
:100770001000002008B50121082001F025FC4FF4ED
:100780008050ADF8000010208DF8030003208DF894
:1007900002006946044801F05BF94FF480510248B9
:1007A00001F003FA08BD0000000C014010B56148DB
:1007B000006820F00F005F4908600846006840F0BC
:1007C0000300086000205C490860142000F0C5FEAA
:1007D00001205A49C1F880011E2000F09AFE10BD88
:1007E00010B500245348006820F00F0051490860FC
:1007F0000846006840F00800086004E0601CC4B2CD
:10080000012000F086FE4C488038006808B1642C56
:10081000F4DB642C01DB012010BD002404E0601C2B
:10082000C4B2012000F075FE43488038006808B962
:10083000642CF4DB642C01DB0120EDE70020EBE706
:1008400010B5002404E0601CC4B2012000F061FE79
:1008500039488038006808B1642CF4DB002404E0D7
:10086000601CC4B2012000F054FE33488038006898
:1008700008B9642CF4DB282000F04BFE2E488038A9
:10088000006808B1012010BD0020FCE770B500240D
:10089000002506E06006040EFFF7D2FF0443681C43
:1008A000C5B2082DF6DB204670BD7CB505460E4668
:1008B000FFF77CFFFFF794FFF8B9002405E0FFF78E
:1008C000E5FF0DF80400601CC4B2052CF7DB9DF8B1
:1008D00000009DF8011008449DF8021008449DF89E
:1008E000031008449DF80410884208D19DF80000C8
:1008F00030709DF80200287001E001207CBD0020CE
:10090000FCE708B50121082001F05EFB0120ADF8ED
:10091000000010208DF8030003208DF802006946C6
:10092000044801F095F8012003490860FFF73EFFF5
:1009300008BD0000000C014080812142008021425E
:100940003EB505460C460121084601F04AFB681EEB
:1009500080B2ADF80400601E80B2ADF80000002047
:10096000ADF80600ADF8020069464FF0804001F096
:1009700067FE01221146900702F0D9F9012188078C
:1009800002F0BAF93EBD08B54FF4A06000F092FF46
:1009900025208DF8000000208DF8010003208DF83F
:1009A000020001208DF80300684600F088FF1C203B
:1009B0008DF8000001208DF8010002208DF8020062
:1009C00001208DF80300684600F079FF27208DF89C
:1009D000000001208DF8010003208DF802000120A5
:1009E0008DF80300684600F06AFF08BD70B5054643
:1009F0000E4614460A2094FBF0F084B202E00A206E
:100A000000F0ABFD3146284602F00EFD20B9200073
:100A1000A4F101018CB2F2D10CB1012070BD002013
:100A2000FCE72DE9F04104460D4616461F46B8483E
:100A3000046085808660878102469188106802F094
:100A400069FDB34A9189906802F064FDB048016B7A
:100A5000B0A088474FF4FA6000F07FFDAC49C86A47
:100A600080474FF4FA7000F078FDA948016BA9A007
:100A700088474FF4487000F070FDA5490869804729
:100A800010B90020BDE8F081A14A9188106802F0F9
:100A900041FD9F48016BA2A088479D494FF4FA721F
:100AA0000868A1A1FFF7A2FF08B90020EAE701202A
:100AB000E8E710B59649C86A80474FF4FA7000F02D
:100AC0004CFD9348016B99A0884710BD10B50524D3
:100AD00011E08F4A9188106802F01CFD8C48016B70
:100AE00096A088478A49C82208688FA1FFF77EFF31
:100AF00008B1012010BD2000A4F10101CCB2E8D161
:100B000000BFF7E770B505460E46052410E0804AA1
:100B10009188106802F0FEFC7D48016B89A088472F
:100B20007B49C822086880A1FFF760FF00B104E09C
:100B30002000A4F10101CCB2E9D100BF0CB9002022
:100B400070BD02241EE0724A9189906802F0E2FCB6
:100B50006F4A9188106802F0DDFC6D4933462A46E1
:100B600088687DA102F0B2FB694A9068116B8847E2
:100B700067494FF4FA5208686BA1FFF737FF08B1D5
:100B80000120DDE72000A4F10101CCB2DBD100BFE0
:100B9000D6E7F8B505460E4617465D49C86A804750
:100BA0004FF4FA7000F0D9FC02241EE0584A9188F4
:100BB000106802F0AFFC564A9189906802F0AAFCD6
:100BC0005349009733462A4688686AA102F07EFBA3
:100BD0004F4A9068116B88474D494FF4FA520868A4
:100BE0006BA1FFF703FF00B104E02000A4F10101B5
:100BF000CCB2DBD100BF0CB90020F8BD4449886AF3
:100C0000804708B90020F8E7022411E0404A9188A3
:100C1000106802F07FFC3E48016B5FA088473C49AA
:100C2000C822086860A1FFF7E1FE08B10120E4E7EF
:100C30002000A4F10101CCB2E8D100BFDDE710B57E
:100C40003349C86A80474FF4FA7000F086FC10E020
:100C50002F4A9188106802F05DFC2D48016B53A06B
:100C600088472B49C822086854A1FFF7BFFE00B18E
:100C700004E02000A4F10101CCB2E9D100BF0CB125
:100C8000012010BD0020FCE770B505460C46204A47
:100C90009188106802F03EFCE1B2284600F0ABFDFE
:100CA00070BD10B504461A4A9188106802F032FCF3
:100CB000204600F095FD10BD10B5022411E0144A45
:100CC0009188106802F026FC1148016B3DA088470E
:100CD0000F49C822086814A1FFF788FE08B1012057
:100CE00010BD2000A4F10101CCB2E8D100BFF7E7AC
:100CF00010B50748016B37A08847322000F02DFC63
:100D00000348016B33A08847322000F026FC10BD59
:100D10002000002041542B5253540D0A00000000C3
:100D2000415445300D0A00004F4B000041542B52F6
:100D30004553544F52450D0A0000000041540D0A1E
:100D40000000000041542B43574D4F44455F43552D
:100D5000523D310D0A00000041542B43574A415087
:100D60005F4355523D222573222C222573220D0A02
:100D70000000000041542B43495053544152543D0C
:100D8000222573222C222573222C25640D0A0000B3
:100D9000434F4E4E4543540041542B434950534515
:100DA0004E440D0A000000003E00000041542B4359
:100DB0004950434C4F53450D0A000000434C4F53DC
:100DC0004544000041542B4349504D4F44453D316B
:100DD0000D0A00002B2B2B002DE9F04104460D4697
:100DE00016461F46F9480460858086608781024662
:100DF0009188106802F08EFBF44A9189906802F0A5
:100E000089FBF249486A8047642000F0A6FBEF495D
:100E1000486A8047642000F0A0FBBDE8F08170B50F
:100E200005460C46E1B2284600F0E5FC70BD2DE910
:100E3000FE4306460F4615464FF00209304602F0C3
:100E400005FB0290384602F001FB0190284602F0B3
:100E5000FDFA00900020DD49888102980C3001994C
:100E6000891C01440098801C0C181021D7488289E5
:100E70008089401CD54B988118468068815400BFFA
:100E80002046E21704EB5262D211A4EBC212D1B297
:100E9000E21704EB5262D411002C01DD41F0800115
:100EA000CA4882898089401CC84B9881184680684E
:100EB0008154002CE4DC0021184682898089401C82
:100EC0009881184680688154042118468289808957
:100ED000401C98811846806881544D2218468189AB
:100EE0008089401C988118468068425451221846D7
:100EF00081898089401C9881184680684254542119
:100F0000184682898089401C9881184680688154DF
:100F10005422184681898089401C9881184680682F
:100F200042540421184682898089401C98811846C1
:100F300080688154C222184681898089401C98812A
:100F40001846806842540022184681898089401CD6
:100F500098811846806842543C21184682898089CD
:100F6000401C98811846806881549DF809201846D5
:100F700081898089401C98811846806842549DF878
:100F80000810184682898089401C9881184680681C
:100F90008154194689681A46928988183146029AFE
:100FA00002F073FA89488089029908448749888148
:100FB0000198002823DD9DF80510844882898089E6
:100FC000401C824B98811846806881549DF804101B
:100FD000184682898089401C98811846806881540F
:100FE000194689681A46928988183946019A02F08A
:100FF0004CFA7648808901990844744988810098A0
:10100000002823DD9DF80110704882898089401CEA
:101010006E4B98811846806881549DF800101846E0
:1010200082898089401C98811846806881541946BD
:1010300089681A46928988182946009A02F025FA8A
:101040006248808900990844604988814FF002090C
:101050004FF000082AE05D4A9188106802F05AFAC1
:101060005A4A91899068FFF7DAFE4FF01E0816E0A1
:101070005648006800785649097888420CD1534890
:101080000068407852494978884205D151A002F061
:1010900011F90120BDE8FE83642000F05EFA5FEAEA
:1010A0000800A8F1010101F0FF08E1D15FEA0900A1
:1010B000A9F1010101F0FF09CDD100BFEAE72DE957
:1010C000F84306460F4615464FF00208304602F038
:1010D000BDF900900098001D0DB1012100E0002134
:1010E000441800203949888155B1822137488289C6
:1010F0008089401C354B988118468068815409E0EE
:10110000A221324882898089401C304B9881184640
:101110008068815400BF2046E21704EB5262D2116E
:10112000A4EBC212D1B2E21704EB5262D411002C2C
:1011300001DD41F08001254882898089401C234BD4
:101140009881184680688154002CE4DC0021184600
:1011500082898089401C98811846806881540121C9
:10116000184682898089401C98811846806881547D
:101170009DF80110184682898089401C9881184684
:10118000806881549DF80010184682898089401C2F
:101190009881184680688154194689681A46928950
:1011A00088183146009A02F070F908488089009941
:1011B00008440649888145B1084681898089401CD8
:1011C000024A90811046806847543FE05800002052
:1011D000B83700086161616161616161616161618C
:1011E00061616161616161616161616161616161EF
:1011F000616161616161610D0A000000A84A918826
:10120000106802F087F9A64A91899068FFF707FEF7
:101210004FF01E0913E0A24800680078A149097840
:10122000884209D19E48006840789E4949788842A2
:1012300002D10120BDE8F883642000F08EF95FEA56
:101240000900A9F1010101F0FF09E4D15FEA0800FA
:10125000A8F1010101F0FF08D0D1B8F1000F01D0D1
:101260000120E7E70020E5E72DE9F8430746884637
:101270001646384602F0EAF80090404602F0E6F8DA
:1012800005460020864988811EB10098001D44193A
:1012900002E00098801C44193021814882898089AD
:1012A000401C7F4B988118468068815400BF2046BF
:1012B000E21704EB5262D211A4EBC212D1B2E217D0
:1012C00004EB5262D411002C01DD41F0800174481E
:1012D00082898089401C724B9881184680688154AD
:1012E000002CE4DC9DF80110184682898089401C9E
:1012F00098811846806881549DF80020184681899D
:101300008089401C98811846806842541946896833
:101310001A46928988183946009A02F0B6F8604851
:101320008089009908445E498881CEB15E48417841
:101330005B4882898089401C594B98811846806897
:10134000815459480278184681898089401C9881C7
:1013500018468068425454480088401C524908800E
:101360004F4989684E4A928988182A46414602F0B8
:101370008CF84B4880892844494988810A469189DC
:101380009068FFF74CFD4648007BBDE8F88310B538
:1013900002214648FFF743FD10BD10B50221444825
:1013A000FFF73DFD10BD2DE9F047B2B080468946FC
:1013B00092461E4600240025002700BF09E018F8C9
:1013C000040028B118F8042028466D1C19A90A54F5
:1013D000641C642CF3DB002019A94855002404E0A8
:1013E00019A8005D0DF80400641C19A802F02EF87D
:1013F000401CA042F4D80025002421E02FB91DF89C
:101400000400484508D1012706E0012F04D11DF84A
:101410000400504500D10227012F04D11DF804001B
:1014200070556D1C0BE0022F09D11DF8040070559A
:10143000002071194870681E32B0BDE8F087641C46
:10144000684602F003F8A042D8D80020F4E770B54F
:101450009AB005460E4601AB232211462846FFF7F7
:10146000A2FFC4B2002C14DD224601A911A001F094
:1014700021FF16A101A801F0D7FF10B101201549E5
:10148000086015A101A801F0CFFF10B1002011499B
:101490000860642101A802F05FF81AB070BD000076
:1014A00058000020C237000882000020BE37000824
:1014B000BC370008627566666572203D2025732082
:1014C0002C206C656E2025640D0A00006F70656E1F
:1014D00000000000B0812142636C6F736500000062
:1014E00010B56FF0040000F034FA2E4800682E4961
:1014F000B0FBF1F02D4908700846007800EB400180
:10150000C1EBC0104FF6FF7101EAC0002849088006
:1015100010BD0146254A12784A434FF0E0235A6134
:1015200000229A611A46126942F001021A6100BF54
:101530004FF0E022106900F001021AB100F480328D
:10154000002AF5D04FF0E022126922F001024FF09C
:10155000E0231A6100229A6170470146144A1288FA
:101560004A434FF0E0235A6100229A611A461269F9
:1015700042F001021A6100BF4FF0E022106900F052
:1015800001021AB100F48032002AF5D04FF0E022B7
:10159000126922F001024FF0E0231A6100229A61E1
:1015A000704700000C00002000127A008400002028
:1015B00086000020014600BF704700BFA34A128882
:1015C00002F04002002AF9D0C2B2A04B1B1D1A80C3
:1015D000704710B586B00446012144F2040000F0C3
:1015E000F3FC4FF40070ADF8140003208DF81600E2
:1015F00018208DF8170005A9954800F029FA4FF436
:101600008060ADF8140004208DF8170005A99048FB
:1016100000F01EFA01940020ADF80800ADF80A00B1
:10162000ADF80C00ADF810000C20ADF80E0001A9CB
:10163000864800F070FD012240F22551834800F0F9
:1016400002FE0121814800F0F2FD06B010BD10B588
:1016500040F225517D4800F0DBFE10B37B4800F0DE
:1016600057FEC4B27B48008800F40040C8B97948EE
:10167000008800F4804060B10A2C03D00020754936
:10168000088020E07348008840F4004071490880D9
:1016900019E00D2C06D16F48008840F480406D4958
:1016A000088010E06B480088C0F30D006A490C54B4
:1016B00068480088401C6749088008460088C72899
:1016C00001DD0020088010BD10B586B00446012160
:1016D000082000F079FC0121880400F082FC4FF41E
:1016E0008060ADF8140003208DF8160018208DF8E6
:1016F000170005A9594800F0ABF94FF40060ADF8A8
:10170000140004208DF8170005A9544800F0A0F932
:1017100001940020ADF80800ADF80A00ADF80C0007
:10172000ADF810000C20ADF80E0001A94C4800F0F7
:10173000F2FC012240F22551494800F084FD0122CB
:1017400040F22441464800F07EFD0121444800F06B
:101750006EFD06B010BD10B540F22551404800F0B6
:1017600057FEC8B13E48001D00883E4908703E48FB
:101770000078FF2802DB00203B49087039480178D7
:10178000394802780078401C374B1870374881542C
:10179000184600781946087040F22441304800F09D
:1017A00037FE70B12E48001D00882E4908702C4865
:1017B000008808702C4800782D49888000202A492C
:1017C000087010BD10B504462146254800F09CFD68
:1017D00000BF4021224800F005FE0028F9D010BDCE
:1017E00010B5044603E014F8010BFFF7EBFF207877
:1017F0000028F8D110BD70B504460D4603E014F87A
:10180000010BFFF7DFFF2800A5F10101CDB2F6D1F2
:1018100070BD70B504460D462946204600F074FDA3
:1018200000BF8021204600F0DDFD0028F9D070BD0A
:1018300070B506460C46002500BF615D3046FFF7D7
:10184000E8FF6D1C605D0028F7D170BD00380140D5
:10185000000801408C00002074030020000C0140AF
:10186000004800409400002095000020AC010020BA
:10187000580000200948804709480047FEE7FEE776
:10188000FEE7FEE7FEE7FEE7FEE7FEE7FEE7FEE730
:1018900004480549054A064B7047000073060008D6
:1018A0003101000868050020680B0020680700204F
:1018B0006807002031490143314A1160704770B513
:1018C000002100230F22C47804B32D4C246804F4B3
:1018D000E064C4F5E064210AC1F10403CA4044781D
:1018E00004FA03F18478144021430901254C067859
:1018F000A155047804F01F050124AC4005786D1152
:10190000AD0005F1E025C5F8004109E0047804F0D8
:101910001F050124AC401C4D0678761145F8264081
:1019200070BD1A4A0A400243154B1B1F1A607047CC
:1019300039B1134A121D12680243114B1B1D1A6064
:1019400006E00F4A121D126882430D4B1B1D1A60E0
:101950007047042808D14FF0E021096941F00401E3
:101960004FF0E022116107E04FF0E021096921F01A
:1019700004014FF0E0221161704700000000FA05F9
:101980000CED00E000E400E080E100E080FFFF1FDC
:1019900010B50446CC48844208D10121042000F04F
:1019A0002DFB0021042000F029FB46E0C7488442BB
:1019B00008D10121082000F021FB0021082000F0BF
:1019C0001DFB3AE0C248844208D10121102000F0FA
:1019D00015FB0021102000F011FB2EE0BD488442D1
:1019E00008D10121202000F009FB0021202000F077
:1019F00005FB22E0B848844208D10121402000F0D4
:101A0000FDFA0021402000F0F9FA16E0B3488442C4
:101A100008D10121802000F0F1FA0021802000F09F
:101A2000EDFA0AE0AE48844207D10121801500F0AA
:101A3000E5FA0021A01500F0E1FA10BD10B5012172
:101A4000084600F0DBFA0021012000F0D7FA10BDB3
:101A50002DE9F04102460025002600200023002445
:101A6000002791F803C00CF00F0591F803C00CF0AB
:101A7000100CBCF1000F03D091F802C04CEA050530
:101A800091F800C0BCF1000F31D0146800202BE0A9
:101A90004FF0010C0CFA00F3B1F800C00CEA030699
:101AA0009E4220D183004FF00F0C0CFA03F7BC4389
:101AB00005FA03FC4CEA040491F803C0BCF1280FBA
:101AC00006D14FF0010C0CFA00FCC2F814C00AE079
:101AD00091F803C0BCF1480F05D14FF0010C0CFA8E
:101AE00000FCC2F810C0401C0828D1D31460B1F823
:101AF00000C0BCF1FF0F34DD546800202EE000F17F
:101B0000080C4FF0010808FA0CF3B1F800C00CEA19
:101B100003069E4221D183004FF00F0C0CFA03F70D
:101B2000BC4305FA03FC4CEA040491F803C0BCF181
:101B3000280F05D100F1080C08FA0CF8C2F814803F
:101B400091F803C0BCF1480F07D100F1080C4FF029
:101B5000010808FA0CF8C2F81080401C0828CED3FF
:101B60005460BDE8F0814FF6FF7101800221817061
:101B70000421C17070470246002093680B400BB1EE
:101B8000012000E0002070470146886880B270475D
:101B900002460020D3680B400BB1012000E000207A
:101BA00070470146C86880B2704701617047416163
:101BB00070470AB1016100E041617047C160704740
:101BC0004FF480320A438261816182618269826955
:101BD000704702460020434B18684FF68073184048
:101BE00040EA021008433F4B186070473E49C86105
:101BF0007047F0B50A46002300240021002500F0BC
:101C00000046B6F1004F02D1364EF16901E0354E83
:101C10007168C0F3034583B200F44016B6F5401F67
:101C200008D121F070612F4E766826F070662D4F36
:101C30007E6012E000F48016B6F5801F06D1032600
:101C400006FA05F4A14341F0706106E0460D360145
:101C500003FA06F6B14341F0706122B1460D360138
:101C600003FA06F6314300F00046B6F1004F02D108
:101C70001C4EF16101E01B4E7160F0BD30B50022D9
:101C80008B071C0F0F2303FA04F2164B08338C103A
:101C900053F824309343134C08348D1044F8253006
:101CA00023468C1053F824308C07240F00FA04F4D8
:101CB00023430C4C08348D1044F8253030BD0A49BC
:101CC000DC3108607047000000080140000C014052
:101CD000001001400014014000180140001C0140A8
:101CE000002001400000014000002042DF48006861
:101CF00040F00100DD49086008464068DC490840C2
:101D0000DA49486008460068DA490840D74908605F
:101D10000846006820F4802008600846406820F4E7
:101D2000FE0048604FF41F0088607047CF49096883
:101D300021F48031CD4A11601146096821F48021D7
:101D40001160B0F5803F03D0B0F5802F0ED106E0D2
:101D5000C649096841F48031C44A116007E0C349AB
:101D6000096841F4A021C14A116000E000BF00BF32
:101D7000704710B501460022002300204A11012AB5
:101D800002D1BA4C236806E0022A02D1B74C236A7A
:101D900001E0B64C636A01F01F02012494401C402C
:101DA0000CB1012000E0002010BD38B500200090EB
:101DB0000024002500BF3120FFF7DBFF0546009817
:101DC000401C00900098B0F5A06F01D0002DF2D01B
:101DD0003120FFF7CEFF08B1012400E000242046A7
:101DE00038BD01460020A14A106820F0F80040EA02
:101DF000C10010607047A04908607047024600208B
:101E00009A4B586820F47C1042EA01031843974B20
:101E10005860704798490866704701460020934A09
:101E2000506820F003000843506070478F484068B6
:101E300000F00C007047014600208C4A506820F0EA
:101E4000F00008435060704701460020874A506800
:101E500020F4E06008435060704701460020834A48
:101E6000506820F4605040EAC1005060704729B1CA
:101E70007E4A527A02437D4B5A7204E07B4A527A80
:101E800082437A4B5A7270477B49D8310860704759
:101E900001460020754A506820F4404008435060D5
:101EA00070470021714A20321170704A82F8201068
:101EB000012802D004280AD104E001216B4A203213
:101EC000117005E00521694A2032117000E000BF61
:101ED00000BF70476949086070476449096A014357
:101EE000624A11627047654944390860704730B5ED
:101EF00000210022002400235C4D6D6805F00C01D8
:101F000021B1042905D0082923D105E05C4D0560E5
:101F100022E05B4D05601FE0544D6D6805F47012C2
:101F2000524D6D6805F48034022505EB92421CB9D0
:101F3000544D554305600BE04C4D6D6805F400357C
:101F40001DB1504D5543056002E04D4D55430560B0
:101F500002E04B4D056000BF00BF444D6D6805F0C9
:101F6000F0010909484D6B5C0568DD4045603F4D57
:101F70006D6805F4E061090A434D6B5C4568DD401E
:101F800085603A4D6D6805F46051C90A3E4D6B5C41
:101F90004568DD40C560354D6D6805F44041890BED
:101FA0003A4D6B5CC568B5FBF3F5056130BD29B1F1
:101FB0002E4A526902432D4B5A6104E02B4A526962
:101FC00082432A4B5A61704729B1284A92690243D9
:101FD000264B9A6104E0254A92698243234B9A6119
:101FE000704729B1214AD2690243204BDA6104E0EB
:101FF0001E4AD26982431D4BDA61704729B11B4AE0
:10200000D2680243194BDA6004E0184AD26882436E
:10201000164BDA60704729B1144A12690243134B18
:102020001A6104E0114A12698243104B1A61704729
:1020300012494039086070470F49C86470470B491E
:10204000C87170470948406A40F08070074948628B
:10205000704701460020054A92680A400AB10120F3
:1020600000E000207047014988727047001002406C
:102070000000FFF8FFFFF6FE0000424280044242EB
:1020800000127A0000093D0096000020A600002002
:1020900010B50446FB48844209D101218803FFF7AB
:1020A000ADFF00214FF48040FFF7A8FF32E0F64873
:1020B000844209D101214804FFF7ADFF00214FF40C
:1020C0000030FFF7A8FF25E0F048844209D1012144
:1020D0008804FFF7A0FF00214FF48020FFF79BFF4B
:1020E00018E0EB48844209D10121C804FFF793FFAF
:1020F00000214FF40020FFF78EFF0BE0E5488442FB
:1021000008D101210805FFF786FF00214FF4801058
:10211000FFF781FF10BD2DE9F04786B005460E465A
:102120000024A24600BFA1460027B08900B100BF2D
:102130002F462C8A4CF6FF700440F08804432C8212
:10214000AC894EF6F3100440B08831890843718998
:1021500008430443AC81AC8A4FF6FF400440B08989
:102160000443AC8201A8FFF7C2FEC648874202D1F1
:10217000DDF810A001E0DDF80CA0A88900F4004013
:1021800040B10AEBCA0000EB0A1031684900B0FB0D
:10219000F1F807E00AEBCA0000EB0A103168890089
:1021A000B0FBF1F86420B8FBF0F0040120096421D1
:1021B00001FB1089A88900F4004040B1322000EBF7
:1021C000C900B0FBF1F000F00700044308E0322042
:1021D00000EB09106421B0FBF1F000F00F000443A4
:1021E0002C8106B0BDE8F0874FF416510160002144
:1021F0008180C18001810C21418100218181704752
:1022000010B502460020108A4FF2FF0318400B88D9
:102210004C8823438C882343CC8823431843108263
:1022200010BD0021018041808180C180704721B1B3
:10223000828942F40052828104E082894DF6FF7364
:102240001A4082817047F0B503460024002600251D
:10225000002040F66A17B94200D100BF1846C1F30A
:10226000421401F01F06012707FA06F5012C01D1DF
:102270000C3004E0022C01D1103000E014301AB10F
:1022800007682F43076002E00768AF430760F0BDAF
:102290001AB1838A0B43838202E0838A8B43838251
:1022A0007047028A4FF6F0731A400282028A0A438C
:1022B0000282704782894FF2FF731A4082818289BD
:1022C0000A438281704721B1828942F002028281F1
:1022D00004E082894FF6FD731A4082817047028ABA
:1022E0004FF6DF731A400282028A0A430282704765
:1022F00021B1028A42F48042028204E0028A4BF653
:10230000FF731A4002827047C1F30802828070474F
:1023100001468888C0F308007047818941F00101B7
:1023200081817047028BD2B20283028B42EA012282
:1023300002837047028B02F47F420283028B0A43BE
:102340000283704721B1828A42F02002828204E037
:10235000828A4FF6DF731A408282704721B1828AE7
:1023600042F01002828204E0828A4FF6EF731A4034
:102370008282704721B1828A42F00802828204E0A0
:10238000828A4FF6F7731A408282704721B18289A0
:1023900042F40042828103E08289C2F30E0282810C
:1023A000704721B1828A42F40062828204E0828A0C
:1023B0004FF2FF731A4082827047828A4FF6FB7396
:1023C0001A408282828A0A438282704721B1828ABD
:1023D00042F00202828204E0828A4FF6FD731A40C4
:1023E0008282704702460020B1F5007F00D100BF15
:1023F00013880B400BB1012000E00020704701F46E
:102400000072B2F5007F00D100BFCA43028070475E
:1024100070B50246002400230025002040F66A160D
:10242000B14200D100BFC1F3421501F01F030126E4
:1024300006FA03F3012D02D19689334006E0022DFE
:1024400002D1168A334001E0968A33400C120126ED
:1024500006FA04F41688344013B10CB1012000E0F0
:10246000002070BD10B50022002340F66A14A1427E
:1024700000D100BF0A1201249440A3B2DC430480BF
:1024800010BD0000003801400044004000480040FA
:10249000004C00400050004010B50446FE48844205
:1024A00008D10121C014FFF7A9FD0021E014FFF7B6
:1024B000A5FDC4E0B4F1804F08D101210846FFF723
:1024C000AAFD00210120FFF7A6FDB8E0F3488442F1
:1024D00008D101210220FFF79EFD00210220FFF715
:1024E0009AFDACE0EE48844208D101210420FFF7B8
:1024F00092FD00210420FFF78EFDA0E0E948844210
:1025000008D101210820FFF786FD00210820FFF7F0
:1025100082FD94E0E448844208D101211020FFF7B5
:102520007AFD00211020FFF776FD88E0DF48844225
:1025300008D101212020FFF76EFD00212020FFF7A8
:102540006AFD7CE0DA48844208D101214014FFF79B
:1025500055FD00216014FFF751FD70E0D54884421D
:1025600009D10121C804FFF749FD00214FF40020E3
:10257000FFF744FD63E0D048844209D101210805FA
:10258000FFF73CFD00214FF48010FFF737FD56E0C8
:10259000CA48844209D101214805FFF72FFD0021D7
:1025A0004FF40010FFF72AFD49E0C548844208D1E6
:1025B00001214020FFF72FFD00214020FFF72BFDD8
:1025C0003DE0C048844208D101218020FFF723FD6F
:1025D00000218020FFF71FFD31E0BB48844208D175
:1025E00001218015FFF717FD0021A015FFF713FD4E
:1025F00025E0B648844209D101210804FFF7FEFC1A
:1026000000214FF48030FFF7F9FC18E0B048844215
:1026100009D101214804FFF7F1FC00214FF40030FB
:10262000FFF7ECFC0BE0AB48844208D101218804A1
:10263000FFF7E4FC00214FF48020FFF7DFFC10BD22
:1026400000220288944B98420ED0994B98420BD0AE
:10265000B0F1804F08D0914B984205D0904B9842F2
:1026600002D0904B984204D14FF68F731A404B889A
:102670001A438D4B984207D08C4B984204D04FF6AA
:10268000FF431A40CB881A4302808B8883850B88CE
:102690000385814B98420BD0854B984208D08B4BD9
:1026A000984205D08A4B984202D08A4B984201D179
:1026B0000B7A038601238382704770B500240022C1
:1026C0000023058C4FF6FE7635400584028C838806
:1026D000048B4FF68F752C40B51E2C400D882C4373
:1026E000751E2A400D892A434D882A436A4DA84207
:1026F0000BD06F4DA84208D0744DA84205D0744D40
:10270000A84202D0734DA84213D14FF6F7752A4064
:102710004D892A434FF6FB752A408D882A434FF690
:10272000FF652B404FF6FF552B408D892B43CD89FC
:102730002B4383800483CD888586028470BD70B569
:10274000002400220023058C4FF6EF7635400584E7
:10275000028C8388048B48F6FF752C404FF6FF45AA
:102760002C400D884FF6FF7606EA05252C434FF6E0
:10277000DF752A400D8906EA05152A434D8806EAC9
:1027800005152A43444DA84202D0494DA8421DD107
:102790004FF67F752A404D894FF6FF7606EA0515FC
:1027A0002A434FF6BF752A408D8806EA05152A434D
:1027B0004FF6FF352B404FF2FF752B408D8906EA0F
:1027C00085052B43CD8906EA85052B438380048349
:1027D000CD880587028470BD70B5002400220023D7
:1027E000058C4FF6FF6635400584028C8388848B08
:1027F0004FF68F752C404FF6FC752C400D882C43FE
:102800004FF6FF552A400D894FF6FF7606EA05255B
:102810002A434D8806EA05252A431F4DA84202D0C7
:10282000234DA8421DD14FF2FF752A404D894FF626
:10283000FF7606EA05252A434FF6FF352A408D88A4
:1028400006EA05252A434EF6FF752B404DF6FF7527
:102850002B408D8906EA05152B43CD8906EA05151F
:102860002B4383808483CD888587028470BD70B5B7
:10287000002200230024058C4EF6FF7635400584A7
:10288000038C8488828B48F6FF752A404FF6FF45FB
:102890002A400D8820E00000002C01400004004088
:1028A00000080040000C00400010004000140040F0
:1028B00000340140004C01400050014000540140F0
:1028C00000180040001C0040002000400040014073
:1028D00000440140004801404FF6FF7606EA052516
:1028E0002A434DF6FF752B400D8906EA05352B432B
:1028F0004D8806EA05352B43FA4DA84202D0FA4D21
:10290000A84208D14BF6FF752C408D894FF6FF7613
:1029100006EA85152C4384808283CD88A0F8405038
:10292000038470BD828B4FF2FF331A408283828B07
:102930004FF6FF7303EA01231A4382837047F0B511
:102940000C461546002200210026078C4EF6FF7C1F
:1029500007EA0C070784828B018C4FF6FF7707EAA2
:10296000043640F6FF473A404FF6FF7707EA05275F
:102970003A434FF6FF7707EA03373A43D94FB84255
:102980000ED0D94FB8420BD0B0F1804F08D0D74FFE
:10299000B84205D0D64FB84202D0D64FB84206D181
:1029A0004DF6FF77394046F48057394305E047F646
:1029B000FF57394044F48057394382830184F0BD86
:1029C000828B4FF6F3731A408283828B0A43828391
:1029D0007047F0B50C461546002200210026078CF2
:1029E0004FF6FF6C07EA0C070784828B018C4FF6C9
:1029F000FF7707EA04264FF60C773A404FF6FF7749
:102A000007EA03172F433A43B64FB8420ED0B64FEA
:102A1000B8420BD0B0F1804F08D0B44FB84205D0C7
:102A2000B34FB84202D0B34FB84206D14FF6FF576A
:102A3000394046F48077394305E04FF2FF5739407B
:102A400044F48077394382830184F0BD028B4FF2D6
:102A5000FF331A400283028B4FF6FF7303EA012310
:102A60001A4302837047F0B50C4615460022002138
:102A70000026078C4FF6EF7C07EA0C070784028BD1
:102A8000018C4FF6FF7707EA041640F6FF473A40FD
:102A90004FF6FF7707EA03373A434FF6FF7707EA27
:102AA00005273A438F4FB8420ED08F4FB8420BD014
:102AB000B0F1804F08D08D4FB84205D08C4FB8424E
:102AC00002D08C4FB84206D14FF6DF77394046F03E
:102AD0001007394305E04FF65F77394044F010079F
:102AE000394302830184F0BD028B4FF6F3731A4021
:102AF0000283028B0A4302837047F0B50C461546E9
:102B000000220021068C4FF6FE773E400684028BA1
:102B1000018C4FF60C7632407E1C06EA03162E43DB
:102B20003243704EB0420ED06F4EB0420BD0B0F177
:102B3000804F08D06D4EB04205D06D4EB04202D0ED
:102B40006C4EB04206D14FF6FD76314044F001069E
:102B5000314305E04FF6F576314044F0010631434C
:102B600002830184F0BD70B505460C465D48854280
:102B70000ED05D4885420BD0B5F1804F08D05B4840
:102B8000854205D05A48854202D05A48854200D134
:102B900000E000BF208850B92389A28861882846B8
:102BA000FFF7ABFFE1882846FFF79EFF25E020886E
:102BB00004280AD12389A28861882846FFF753FF99
:102BC000E1882846FFF742FF17E0208808280AD14D
:102BD0002389A28861882846FFF7FBFEE188284602
:102BE000FFF7EEFE09E02389A28861882846FFF7F7
:102BF000A6FEE1882846FFF795FE70BD2DE9F0415D
:102C000005460C4600260127608808B9022600E028
:102C10000026A088012801D1022700E00127208892
:102C2000A0B92389A28861882846FFF766FFE1885A
:102C30002846FFF759FF23893A4631462846FFF7D1
:102C400012FFE1882846FFF701FF13E02389A288DD
:102C500061882846FFF707FFE1882846FFF7F6FE60
:102C600023893A4631462846FFF747FFE188284640
:102C7000FFF73AFFBDE8F0810A884B881A438B883A
:102C80001A43CB881A430B891A434B891A438B8901
:102C90001A43A0F8442070474FF6FF71818000214D
:102CA0000180C18041800172704700210180418014
:102CB0008180C180018141818181C1817047002172
:102CC00001804180012181800021C1800181704704
:102CD0000021018041808180C18001814181818109
:102CE00070470000002C0140003401400004004007
:102CF00000080040000C004021B1028842F00102AF
:102D0000028004E002884FF6FE731A40028070478A
:102D100031B1B0F8442042F40042A0F8442005E06C
:102D2000B0F84420C2F30E02A0F8442070471AB154
:102D300083890B43838102E083898B4383817047BE
:102D40008182704741EA0203A0F8483070471AB107
:102D500083890B43838102E083898B43838170479E
:102D600001894FF6F8721140018170470A4600212F
:102D700001894FF68F73194011430181704730B5B7
:102D800004460D4629462046FFF7F0FF208940F013
:102D90000700208130BD2DE9F04104460D4616465E
:102DA0001F46602D06D13B46012231462046FFF7E3
:102DB0005AFE05E03B46012231462046FFF79DFEC4
:102DC00029462046FFF7D2FF208940F007002081E6
:102DD000BDE8F08130B50C4600210189C9B24FF63B
:102DE000FF7505EA0325154325432943018130BDBD
:102DF0002DE9F04105460E46174698460024434605
:102E00003A4631462846FFF7E5FF2C894FF6F87021
:102E1000044044F007044FF68F70044044F07004FF
:102E20002C81BDE8F081F0B504460D4616461F46DC
:102E30003B46324629462046FFF7CCFF208940F426
:102E400080402081F0BD0185828270470A460021C2
:102E500001884FF68F731940114301807047F0B518
:102E60000C4615461E460021002200230189028BD4
:102E7000038C4FF6F877394021434FF6FC473A4030
:102E800040F201173A434FF6DD773B404FF6FF77AC
:102E900007EA06172F433B43018102830384F0BDF9
:102EA0000A460021018B4FF68F73194011430183AD
:102EB00070470A460021018B48F6FF7319404FF610
:102EC000FF7303EA02231943018370470A46002176
:102ED000818B4FF68F7319401143818370470A46E7
:102EE0000021818B48F6FF7319404FF6FF7303EA08
:102EF000022319438183704721B1028842F0800286
:102F0000028004E002884FF67F731A400280704707
:102F100021B1828842F00402828004E082884FF668
:102F2000FB731A408280704721B1828842F0080208
:102F3000828004E082884FF6F7731A4082807047DF
:102F400021B1828842F00102828004E082884FF63B
:102F5000FE731A40828070470A460021018B4FF6AB
:102F6000F77319401143018370470A460021018B12
:102F70004FF2FF7319404FF6FF7303EA0223194320
:102F8000018370470A460021818B4FF6F773194081
:102F90001143818370470A460021818B4FF2FF73F2
:102FA00019404FF6FF7303EA0223194381837047E8
:102FB0000A460021018B4FF6FB7319401143018330
:102FC00070470A460021018B4FF6FF3319404FF638
:102FD000FF7303EA02231943018370470A46002165
:102FE000818B4FF6FB7319401143818370470A466A
:102FF0000021818B4FF6FF3319404FF6FF7303EA30
:1030000002231943818370470A460021018B4FF642
:103010007F7319401143018370470A460021018BD9
:10302000C1F30E014FF6FF7303EA02231943018334
:1030300070470A460021818B4FF67F731940114378
:10304000818370470A460021818BC1F30E014FF640
:10305000FF7303EA02231943818370470A46002164
:10306000018C4FF6FD7319401143018470470A46E5
:103070000021018C4FF6F77319401143018470470A
:103080000A460021018C4FF6DF7319404FF6FF739B
:1030900003EA02131943018470470A460021018C98
:1030A0004FF67F7319404FF6FF7303EA021319437B
:1030B000018470470A460021018C4FF6FF531940E6
:1030C0004FF6FF7303EA02231943018470470A464F
:1030D0000021018C4FF2FF7319404FF6FF7303EA92
:1030E00002231943018470470A460021018C4DF6E2
:1030F000FF7319404FF6FF7303EA0233194301844B
:10310000704730B5002301248C40A3B2048C9C434B
:103110000484048C02FA01F5ADB22C43048430BD62
:1031200030B5002304248C40A3B2048C9C43048457
:10313000048C02FA01F5ADB22C43048430BD70B5A5
:103140000346002000241846183001258D40ACB2FB
:103150001D8CA5431D8409B1082909D100EB61002C
:10316000056825F0700505600568154305600EE0EB
:103170000D1FC5F34E052844056825F4E04505609C
:1031800005684FF6FF7606EA02263543056070BDF6
:1031900021B1028842F00202028004E002884FF668
:1031A000FD731A400280704721B1028842F0040288
:1031B000028004E002884FF6FB731A4002807047D9
:1031C00021B1828842F08002828004E082884FF63A
:1031D0007F731A408280704702884FF6F7731A4057
:1031E000028002880A430280704782884FF68F73FC
:1031F0001A40828082880A438280704702894FF693
:10320000F8731A40028102890A43028170470289D9
:103210004FF67F731A40028102890A430281704788
:103220008184704781857047818670470187704728
:1032300081877047A0F84010704702884FF6FF431F
:103240001A40028002880A43028070470146888E35
:1032500070470146088F70470146888F70470146C6
:10326000B1F8400070470146888C70470146088DD0
:10327000704702460020138A0B400BB1012000E08A
:1032800000207047CA430282704730B502460020D2
:1032900000230024158A05EA0103958905EA010443
:1032A00013B10CB1012000E0002030BDCA430282FE
:1032B000704770470FB4044910B503AA029800F094
:1032C00003FA10BC5DF814FB880000200FB41CB595
:1032D000074B06AA7B4469460090059800F0C5F9A3
:1032E0000020694600F0D4F91CBC5DF814FB000016
:1032F000B90300002DE9F0410E460446002020628B
:103300002046E168884730B3252805D0D4E901215B
:103310009047206A401CF2E7E16820460027884772
:10332000050018D0A5F14100192802D820354FF426
:1033300000673246294620462760FCF733FF40B13C
:10334000012804D0F61D26F007060836D8E7361DFA
:10335000D6E72846DAE7206ABDE8F08170B50C466A
:103360000546012A05D02878800600D5EA690023A1
:1033700002E0012305E05B1C934202D2E05C0028DE
:10338000F9D1A869E618C01AA861286A1844286209
:103390002846AFF3008004E0D5E9012114F8010BC1
:1033A0009047B442F8D32846AFF3008070BD0000C8
:1033B0002DE9F0410646002410687529314616A50E
:1033C00010D0AFF30080002802DA404213A507E0D6
:1033D00031688A0701D512A502E0490704D511A575
:1033E000012401E0AFF3008000210A2206F1240746
:1033F00009E0B0FBF2FCB0FBF2F302FB1C00303042
:1034000078541846491C0028F3D123462A463046F2
:10341000BDE8F04100F0CBB8000000002D00000036
:103420002B0000002000000030B505460B462A4660
:1034300013F8014B12F8010B08B1A042F8D01CB1EF
:10344000002802D06D1CF1E7284630BD10B5431CA2
:1034500002E010F8011B71B18107FAD14FF001327F
:1034600002C88C1A8C4314EAC211F9D0C01A0A0699
:1034700003D0C01E10BDC01A10BD0A0401D0801EAA
:1034800010BD0902FCD0401E10BD032A40F230805E
:1034900010F0030C00F0158011F8013BBCF1020F95
:1034A000624498BF11F801CB00F8013B38BF11F816
:1034B000013BA2F1040298BF00F801CB38BF00F82D
:1034C000013B11F0030300F01181083AC0F00880BD
:1034D00051F8043B083A51F804CBA0E80810F5E78E
:1034E000121D5CBF51F8043B40F8043BAFF3008071
:1034F000D20724BF11F8013B11F801CB48BF11F8E6
:10350000012B24BF00F8013B00F801CB48BF00F8B5
:10351000012B70474FF000020429C0F0128010F018
:10352000030C00F01B80CCF1040CBCF1020F18BF9F
:1035300000F8012BA8BF20F8022BA1EB0C0100F032
:103540000DB85FEAC17C24BF00F8012B00F8012B05
:1035500048BF00F8012B70474FF0000200B513463A
:1035600094469646203922BFA0E80C50A0E80C50A3
:10357000B1F12001BFF4F7AF090728BFA0E80C5054
:1035800048BF0CC05DF804EB890028BF40F8042B4D
:1035900008BF704748BF20F8022B11F0804F18BFBA
:1035A00000F8012B704770477047704770472DE94E
:1035B000F0470D4699469246044600F124080168FA
:1035C000880604D5E06921F01001216000E00120A7
:1035D000A84201DD471B00E00027A1697A1902EB30
:1035E0000900081AA0612078C00602D42046AFF373
:1035F0000080002608E0D4E901211AF8060090476F
:10360000206A401C761C20624E45F4DB2078C00600
:103610000AD52046AFF3008006E0D4E9012130202E
:103620009047206A401C2062381EA7F10107F4DC95
:1036300007E0D4E9012118F805009047206A401CF2
:103640002062281EA5F10105F3DC2046AFF30080BF
:103650002078000602D50220BDE8F0870120FBE7B4
:1036600001694A1C02610878704700B58FB0CDE946
:1036700001310021059105497944CDE90310114636
:103680006846FFF737FE0FB000BD0000E5FFFFFF03
:103690000A6802F8010B0A60704710B5436913B15C
:1036A000AFF3008001E0FFF759FE012010BD127852
:1036B00000F124010A7000224A700122EDE711682E
:1036C0004FF0FF32E9E70000074B70B50D467B4431
:1036D000FFF7CBFF0446284600F03AF810B14FF050
:1036E000FF3070BD204670BDE9DEFFFF10B5203A07
:1036F000C0F00B80B1E81850203AA0E81850B1E8AB
:103700001850A0E81850BFF4F5AF5FEA027C24BF60
:10371000B1E81850A0E8185044BF18C918C0BDE857
:1037200010405FEA827C24BF51F8043B40F8043B20
:1037300008BF7047D20728BF31F8023B48BF11F8D5
:10374000012B28BF20F8023B48BF00F8012B70472F
:10375000007B00F080007047754600F029F8AE4607
:1037600005006946534620F00700854618B020B58D
:10377000FEF78EF8BDE820404FF000064FF000073E
:103780004FF000084FF0000B21F00701AC46ACE809
:10379000C009ACE8C009ACE8C009ACE8C0098D4676
:1037A00070470446AFF300802046FCF710FD000090
:1037B000004870470405002020020000E000C0001F
:1037C000C0009003E437000800000020AC000000B7
:1037D0006C01000890380008AC000020BC0A000012
:1037E0008801000800000000000000000000000048
:1037F00000A24A04000000000000000001020304CF
:10380000060708090000000000000000000000009A
:1038100000000000CD0A0008230A0008B30A0008CF
:10382000050B0008930B00083F0C0008B90C0008BA
:10383000F10C0008A30C0008890C0008000000002F
:10384000000000000000000000000000D90D00088A
:103850002F0E0008BF100008691200088F1300081F
:103860009B130008010000000000000000000000A1
:103870000000000000000000000000000000010245
:1038800003040102030406070809020406080000F5
:0400000508000131BD
:00000001FF
